:100000000C94CC010C94F3280C94CC280C94F4019F
:100010000C94F4010C94F4010C94F4010C94CE278C
:100020000C94F4010C94F4010C94F4010C94F4017C
:100030000C94F4010C941A290C94F4010C94F4011E
:100040000C9482280C94F4010C9450280C942A28C7
:100050000C94F4010C94F4010C94F4010C94F4014C
:100060000C94F4010C94F40152656164696E67208C
:100070006E616D6520666972737420636861726178
:1000800063746572206E6F742076616C6964002001
:1000900020206E6F20726F6F6D20666F7220766108
:1000A000726961626C65004F706572616E64206593
:1000B00072726F723A2000696E76616C6964206CAE
:1000C0006F676963616C206F70657261746F722015
:1000D000696E206C6F676963616C206F7065726117
:1000E00074696F6E00456570726F6D20656E640097
:1000F00050726F6772616D2073697A653A200050A3
:10010000726F6772616D3A2000576865656C207385
:10011000706163696E673A20005269676874206491
:1001200069616D657465723A20004C65667420647F
:1001300069616D657465723A2000576865656C2069
:1001400073657474696E67730056434F4B00565362
:100150004F4B005653206E6F20657175616C732094
:100160006166746572207661726961626C65206E89
:10017000616D65005653206E6F20726F6F6D206643
:100180006F72207661726961626C650056532069F6
:100190006E76616C6964207661726961626C65205B
:1001A0006E616D6520005653207661726961626CE4
:1001B00065206E616D6520746F6F206C6F6E6700D7
:1001C000565320696E76616C69642076617269614C
:1001D000626C65206E616D650056562076617269AD
:1001E00061626C65206E6F7420666F756E64005579
:1001F0006E61737369676E656400616E67727923FF
:100200006861707079236D6F7665237475726E23E3
:100210006172632364656C617923636F6C6F7572BF
:1002200023636F6C6F7223706978656C23736574D8
:1002300023696623646F237768696C6523696E742C
:10024000696D6523656E64696623666F72657665A0
:100250007223656E647768696C6523736F756E646D
:1002600023756E74696C23636C6561722372756E9D
:10027000236261636B67726F756E6423656C73656F
:100280002372656423677265656E23626C756523EE
:1002900079656C6C6F77236D6167656E746123633C
:1002A00079616E23776869746523626C61636B237F
:1002B000776169742373746F7023626567696E2355
:1002C000656E64237072696E74237072696E746CEB
:1002D0006E23627265616B236475726174696F6EFF
:1002E00023636F6E74696E756523616E676C652339
:1002F000004341003230303030005043005653004C
:10030000434C6C00434A6C0050463230005046313A
:10031000004D46004D52004D4100434400564300FD
:10032000525300504E00434100524800524D00527B
:100330004300525800524100574C003530300053B2
:10034000540000000000240027002A0000000008DC
:10035000000201000003040700000000000000008C
:10036000020102040810204080010204081020014C
:10037000020408102000000000250028002B0004C3
:10038000040404040404040202020202020303033C
:1003900003030300D82C5D3011241FBECFEFD8E03B
:1003A000DEBFCDBF12E0A0E0B1E0ECEAFCE602C0A7
:1003B00005900D92A431B107D9F726E0A4E1B2E08F
:1003C00001C01D92A73FB207E1F711E0CBECD1E0ED
:1003D00004C02197FE010E941934CA3CD107C9F715
:1003E0000E94C42D0C9449360C940000DC019091BD
:1003F000DF06992361F0699FB0011124672F949F54
:10040000A0011124452F929F90011124232F309198
:10041000E506E091E006F091E1068091E2063813EE
:100420001AC0CD01880F991F8A0F9B1F8E0F9F1F27
:10043000E091E206E80FF92FF11D6083E091E306F9
:10044000E80FF92FF11D40833091E406830F911DD1
:10045000FC0120830895CD01880F991F880F991FF3
:100460008E0F9F1FFC01E30FF11D1082E1CFAF92B1
:10047000BF92CF92DF92EF92FF920F931F93CF9391
:10048000DF936C017B018B01040F151FEB015E01F3
:10049000AE18BF08C017D10759F06991D601ED9188
:1004A000FC910190F081E02DC6010995892B79F727
:1004B000C501DF91CF911F910F91FF90EF90DF90D9
:1004C000CF90BF90AF900895FC01538D448D252FA0
:1004D00030E0842F90E0821B930B541710F0CF96DE
:1004E000089501970895FC01918D828D981761F010
:1004F000A28DAE0FBF2FB11D5D968C91928D9F5F27
:100500009F73928F90E008958FEF9FEF0895FC0105
:10051000918D828D981731F0828DE80FF11D858DB8
:1005200090E008958FEF9FEF0895FC01918D228D4B
:10053000892F90E0805C9F4F821B91098F739927D0
:1005400008958AE396E00E94950221E0892B09F440
:1005500020E0822F089580E090E0892B29F00E940E
:10056000A10281110C9400000895FC01A48DA80F34
:10057000B92FB11DA35ABF4F2C91848D90E00196E5
:100580008F739927848FA689B7892C93A089B18905
:100590008C91837080648C93938D848D981306C0A6
:1005A0000288F389E02D80818F7D80830895EF920A
:1005B000FF920F931F93CF93DF93EC0181E0888F1D
:1005C0009B8D8C8D98131AC0E889F989808185FFED
:1005D00015C09FB7F894EE89FF896083E889F9898F
:1005E00080818370806480839FBF81E090E0DF9191
:1005F000CF911F910F91FF90EF900895F62E0B8DE4
:1006000010E00F5F1F4F0F731127E02E8C8D8E119E
:100610000CC00FB607FCFACFE889F989808185FF05
:10062000F5CFCE010E94B502F1CFEB8DEC0FFD2F7F
:10063000F11DE35AFF4FF0829FB7F8940B8FEA89C0
:10064000FB8980818062CFCF0F931F93CF93DF937D
:100650008C01D0E0C0E0F801EC0FFD1F649166232F
:1006600041F08AE396E00E94D702892B11F021968F
:10067000F2CFCE01DF91CF911F910F910895CF93CB
:10068000DF93EC01888D8823B9F0AA89BB89E889BA
:10069000F9898C9185FD03C0808186FD0DC00FB660
:1006A00007FCF7CF8C9185FFF2CF808185FFEDCFDE
:1006B000CE010E94B502E9CFDF91CF91089590E07D
:1006C000FC01E45BFC4F2491FC01EF59FC4F349199
:1006D000FC01E158FC4FE491EE23C9F0222339F0EC
:1006E000233001F1A8F4213019F1223029F1F0E092
:1006F000EE0FFF1FEB58FC4FA591B4918FB7F89404
:10070000EC91611126C030953E233C938FBF089534
:100710002730A9F02830C9F0243049F780918000B3
:100720008F7D03C0809180008F7780938000DFCF22
:1007300084B58F7784BDDBCF84B58F7DFBCF80916F
:10074000B0008F778093B000D2CF8091B0008F7DC2
:10075000F9CF3E2BDACF90913F0189130BC0E0E631
:10076000F3E0E4919FEF90933F01E13049F028F0EE
:10077000E23061F060E00C945F0310926E00FACFFB
:1007800090916F009D7F90936F00F4CF90917000D7
:100790009D7F9093700091E09093B0009091B10094
:1007A000987F94609093B1001092B300E3CFCF9301
:1007B000DF9390E0FC01EF59FC4F249181589C4F4E
:1007C000FC0184918823D1F090E0880F991FFC01EF
:1007D000EE5BFC4FA591B491FC01EB58FC4FC59129
:1007E000D49161110EC09FB7F8948C91E22FE095DF
:1007F0008E238C932881E223E8839FBFDF91CF91E2
:1008000008958FB7F894EC91E22BEC938FBFF6CF5D
:100810003FB7F8948091220490912304A09124047E
:10082000B091250426B5A89B05C02F3F19F001966D
:10083000A11DB11D3FBFBA2FA92F982F8827BC013A
:10084000CD01620F711D811D911D42E0660F771F62
:10085000881F991F4A95D1F70895CF92DF92EF92A2
:10086000FF920F931F93CF93DF93CDB7DEB72997F6
:100870000FB6F894DEBF0FBECDBF8091E006909119
:10088000E106892B09F480C0C090E606D090E70607
:10089000E090E806F090E9060E9408046C157D05DA
:1008A0008E059F0550F40E9408046093E60670933D
:1008B000E7068093E8069093E9060E9408040091F9
:1008C000E6061091E7062091E8063091E906601BE4
:1008D000710B820B930B6C32714081059105A0F274
:1008E000F8948091DB069091DC069A838983E091ED
:1008F000E006F091E106DF011196808189879091F1
:10090000D706E091EA06F091EB068091EC06992378
:1009100009F449C09081982B98879081809589230C
:100920008F838F818C8388E08B8358856F81498585
:100930003B812C8189819A81508347FD252F3A95EF
:100940002083262F39F0441F00C000006083000080
:1009500000C0F2CF38E04D9160830000019761F74D
:10096000F093EB06E093EA0649873B832C839A8356
:10097000898378940E9408046093E6067093E706E2
:100980008093E8069093E90629960FB6F894DEBFA7
:100990000FBECDBFDF91CF911F910F91FF90EF90D0
:1009A000DF90CF9008959081982B988790818095C3
:1009B00089238F838F818E8388E08D8358856F8113
:1009C00049853D812E8189819A81508347FD252F5C
:1009D00000C000C0208300C000C000C000C000C034
:1009E00060830000262F3A9541F0441F000000C0AC
:1009F00000C000C000C000C0E8CF38E04D9100C08A
:100A0000608300C0019709F7F093EB06E093EA06D4
:100A100049873D832E83ABCF8F929F92AF92BF9237
:100A2000CF92DF92EF92FF924B015C010E9408048B
:100A30006B017C010E9408046C197D098E099F09D5
:100A4000683E734081059105A8F321E0821A910860
:100A5000A108B10888EEC80E83E0D81EE11CF11C85
:100A600081149104A104B10429F7FF90EF90DF9065
:100A7000CF90BF90AF909F908F9008952FB7F8942C
:100A800060911E0470911F048091200490912104B4
:100A90002FBF089508958091C1039091C203181645
:100AA00019067CF40197FC01EE0FFF1FEE0FFF1FEC
:100AB000E756FC4F20812350223088F781819281B4
:100AC00008958FEF9FEF08958091C1039091C20325
:100AD00001979093C2038093C103880F991F880FD9
:100AE000991FFC01E756FC4F818192810895209166
:100AF000C1033091C203F901EE0FFF1FEE0FFF1F7C
:100B0000E756FC4F808370E0728361838091C50358
:100B100083832F5F3F4F3093C2032093C103089517
:100B20000F931F93CF93DF930AE010E0B8010E9468
:100B30000534D62FC72FE091D704F091D804805DFB
:100B400009958D2F9C2F009789F7DF91CF911F91E9
:100B50000F910895E091D704F091D8048DE00994A5
:100B6000CF93DF93EC01FE0184912196882331F02D
:100B7000E091D704F091D8040995F5CFDF91CF919A
:100B80000895CF93DF93EC0184E093E00E94B005D9
:100B9000CE01DF91CF910C949005CF93DF93EC01C0
:100BA00080E093E00E94B005CE01DF91CF910C94DC
:100BB0009005CF93DF93C0919703D091980321962E
:100BC000D0939803C09397036C2F0E947705CE01B2
:100BD000DF91CF910C94CD059091D504292F3091C0
:100BE000D604822F891BF9012F5F3F4F408140328D
:100BF000C1F3F093D604E093D50408958091910356
:100C000090919203FC01019620812032D9F3F09358
:100C10009203E09391030895E8E5F2E081E0808398
:100C200081831686158612823F9693E0E438F90791
:100C3000B1F7089582E480937C0080917A0080640B
:100C400080937A0080917A0086FDFCCF80917800B5
:100C500090917900089521E0861797070CF420E021
:100C6000822F089521E0681779070CF420E0822F85
:100C7000089521E0681779070CF020E0822F08958D
:100C800021E0861797070CF020E0822F089521E0DD
:100C90008617970709F420E0822F089521E0861730
:100CA000970709F020E0822F08950E9405340895E7
:100CB0000E940534CB0108959C01269FC001279F07
:100CC000900D369F900D11240895861B970B089563
:100CD000860F971F089560913C0470913D048091A8
:100CE0003E0490913F040E941B312AE939E949EB07
:100CF00050E40E9458330E94CA33CB0108950C94EB
:100D00006B06CF93DF9360E083E00E945F03C3E054
:100D1000D0E0CE010197F1F761E083E00E945F032C
:100D200083E290E00197F1F7D093CC04C093CB0419
:100D300060E083E00E945F0365E070E080E090E0A7
:100D4000DF91CF910C940C050F931F934A9B0DC01C
:100D50000E94080460934C0270934D0280934E02EF
:100D600090934F021F910F9108950E9408040091E3
:100D70004C0210914D0220914E0230914F02601BA7
:100D8000710B820B930B60933C0470933D04809332
:100D90003E0490933F0484E090E09093CC048093D1
:100DA000CB04E0CF80914B02811107C090914A02A1
:100DB00081E0911103C080E0089581E008950E94D0
:100DC000D20690E008958BB18F708BB910924A02D1
:100DD0001092460210924702109248021092490265
:100DE000089585B1807F85B910924B02109242021E
:100DF00010924302109244021092450208950E94FC
:100E0000E3060E94F1061092DA041092D9040895C4
:100E10000F931F930E94080460932402709325028D
:100E2000809326029093270280914A02882309F436
:100E3000C0C04091340250913502609136027091E9
:100E400037028091240290912502A0912602B09150
:100E50002702841B950BA60BB70B8093200290935F
:100E60002102A0932202B0932302409120025091CC
:100E70002102609122027091230280913E029091A2
:100E80003F02A0914002B0914102481759076A07FA
:100E90007B0708F48EC080914A02882309F445C07C
:100EA0008BB1E0913D028F700E2E000CFF0BE05BCA
:100EB000FE4F9081890F8BB990914A0280913D023B
:100EC000890F80933D0280913D02883011F4109289
:100ED0003D0280913D0287FF03C087E080933D0281
:100EE0008091460290914702A0914802B091490238
:100EF0000196A11DB11D8093460290934702A093D5
:100F00004802B093490240913B0150913C016091ED
:100F10003D0170913E0184179507A607B70728F099
:100F200010924A028BB18F708BB980913E029091E2
:100F30003F02A0914002B0914102409120025091A5
:100F400021026091220270912302009124021091EB
:100F500025022091260230912702800F911FA21FA7
:100F6000B31F841B950BA60BB70B80933402909391
:100F70003502A0933602B0933702809124029091FB
:100F80002502A0912602B091270240913E02509185
:100F90003F026091400270914102840F951FA61F8D
:100FA000B71F80932C0290932D02A0932E02B09332
:100FB0002F0280914B02882309F4C0C04091300277
:100FC000509131026091320270913302809124027B
:100FD00090912502A0912602B0912702841B950BC7
:100FE000A60BB70B80931C0290931D02A0931E02C8
:100FF000B0931F0240911C0250911D0260911E028D
:1010000070911F028091390290913A02A0913B02A7
:10101000B0913C02481759076A077B0708F48EC055
:1010200080914B02882309F445C085B1E0913802D4
:10103000807F0E2E000CFF0BE85AFE4F9081890F27
:1010400085B990914B0280913802891B80933802B8
:1010500080913802883011F4109238028091380261
:1010600087FF03C087E0809338028091420290910D
:101070004302A0914402B09145020196A11DB11D09
:101080008093420290934302A0934402B09345029E
:1010900040913701509138016091390170913A01C6
:1010A00084179507A607B70728F010924B0285B161
:1010B000807F85B98091390290913A02A0913B02DC
:1010C000B0913C0240911C0250911D0260911E02A1
:1010D00070911F0200912402109125022091260296
:1010E00030912702800F911FA21FB31F841B950B05
:1010F000A60BB70B8093300290933102A09332027B
:10110000B09333028091240290912502A09126028F
:10111000B09127024091390250913A0260913B020E
:1011200070913C02840F951FA61FB71F8093280261
:1011300090932902A0932A02B0932B0290914A0225
:1011400080914B02992309F489C0882309F486C051
:10115000409124025091250260912602709127024D
:1011600080912C0290912D02A0912E02B0912F021D
:10117000841B950BA60BB70B809318029093190252
:10118000A0931A02B0931B024091240250912502B1
:101190006091260270912702809128029091290285
:1011A000A0912A02B0912B02841B950BA60BB70BC2
:1011B0008093140290931502A0931602B093170225
:1011C000409118025091190260911A0270911B020D
:1011D0008091140290911502A0911602B09117020D
:1011E000481759076A077B0708F06DC080911802FD
:1011F00090911902A0911A02B0911B0286399105B3
:10120000A105B10560F486E990E0A0E0B0E080932C
:10121000180290931902A0931A02B0931B024091F6
:1012200018025091190260911A0270911B02DB01A1
:10123000CA01E3E0880F991FAA1FBB1FEA95D1F7E7
:10124000009721E0A207B10508F05FC021E02093DC
:101250003B0490933A048093390464C080914A021D
:10126000409124025091250260912602709127023C
:101270008823A9F080912C0290912D02A0912E023A
:10128000B0912F02841B950BA60BB70B809318020D
:1012900090931902A0931A02B0931B02A7CF8091DA
:1012A000280290912902A0912A02B0912B02841B5E
:1012B000950BA60BB70B8093140290931502A09385
:1012C0001602B09317028091140290911502A0911A
:1012D0001602B091170286399105A105B10560F497
:1012E00086E990E0A0E0B0E08093140290931502AC
:1012F000A0931602B0931702409114025091150268
:10130000609116027091170292CF009728E0A20711
:10131000B105C0F482E080933B047F7150933A049E
:10132000409339048091390490913A049093870056
:101330008093860080913B048061809381001F919F
:101340000F910895009720E4A207B10558F423E017
:1013500020933B0446E0B695A795979587954A95C7
:10136000D1F777CF0097A10521E0B20740F424E040
:1013700020933B04892F9A2FAB2FBB276ACF00976E
:10138000A10524E0B20758F425E020933B042AE0AD
:10139000B695A795979587952A95D1F75ACF85E069
:1013A00080933B048FEF9FEF54CF9CE1299FF00186
:1013B0001124ED51FB4F80836483408780E2289F96
:1013C00090011124338B228B118E13821782138686
:1013D000148617868FEF858784E090E0938F828F45
:1013E00081E08093DF040895E3EEF4E0138E128E23
:1013F0007C9686E0E333F807C9F71092E204109276
:10140000E0041092E10481E08093DF040895FC0180
:1014100001900020E9F73197AF01481B590BBC013F
:101420008AE396E00C94370280E991E00C94070A75
:10143000CF93DF930E942403EC010E94140A8C0FC7
:101440009D1FDF91CF9108958F929F92AF92BF928F
:101450000F931F93CF93DF93CDB7DEB7A1970FB64E
:10146000F894DEBF0FBECDBF19A2423008F44AE0A7
:101470008E010F5D1F4F842E912CB12CA12CA50144
:1014800094010E94BA32E62FB901CA01EA30F4F49D
:10149000E05DD801EE938D01232B242B252B79F7CA
:1014A00090E080E0109719F0CD010E94070AA19604
:1014B0000FB6F894DEBF0FBECDBFDF91CF911F9165
:1014C0000F91BF90AF909F908F900895E95CE1CF0E
:1014D000CF92DF92EF92FF92CF93DF9397FF1BC0E3
:1014E0006B017C016DE28AE396E00E94D702EC0179
:1014F00066277727CB016C197D098E099F094AE081
:101500000E94240A8C0F9D1FDF91CF91FF90EF90D6
:10151000DF90CF9008954AE0DF91CF91FF90EF9058
:10152000DF90CF900C94240ACF93DF93BC01990FE6
:10153000880B990B0E94680AEC010E94140A8C0F18
:101540009D1FDF91CF910895CF93DF930E94070AEB
:10155000EC010E94140A8C0F9D1FDF91CF9108951A
:101560002FE0289FD001299FB00D1124FD01E85ADA
:10157000FD4F808181110BC0A65ABD4FFD01019026
:101580000020E9F73197CF018A1B9B0B089590E06B
:1015900080E00895CF93DF93FC01418120E631E0A4
:1015A000F901C191D1919F01A881B981FD010190FB
:1015B0000020E9F73197EA1BFB0B4D3359F43197C3
:1015C00059F06C91FC015081651306C0CE01DF918A
:1015D000CF9108953297A9F7F1E02C363F0701F734
:1015E000D0E0C0E0F3CFCF92DF92EF92FF926B0199
:1015F0007C01C114D104E104F10441F00E94C13026
:10160000A70196010E9451326B017C01C701B6010E
:10161000FF90EF90DF90CF900895CF92DF92EF92FE
:10162000FF926B017C01C216D306E406F50664F452
:10163000CA01B9016C197D098E099F090E94F30A3C
:10164000C60ED71EE81EF91EC701B601FF90EF9027
:10165000DF90CF9008959F92AF92BF92CF92DF928A
:10166000EF92FF920F931F93CF93DF93C62ED42E4A
:10167000122FE82EF12C2CE1829FE0011124CD5194
:10168000DB4FB988A8884B2D4A19550BCA016091C8
:101690004401709145010E9405349B01770F440B72
:1016A000550B61E070E080E090E00E940D0B962EFB
:1016B00029898889281B330B032E000C440B550BFA
:1016C00061E070E080E090E00E940D0B6D879E86E7
:1016D000A88AB98A41E04F87C70125E0880F991F82
:1016E0002A95E1F79B8B8A8B198E1B821F821B86A2
:1016F00082E090E09B8F8A8FCC86DA82D9825881F3
:101700008D2D90E0252F30E0D51608F056C0A901A8
:10171000481B590BCA0162E370E00E9405346195D1
:10172000662311F06B8302C08FEF8B838CE18E9D5B
:10173000F0018F9DF00D1124ED51FB4F16831583A1
:101740004481812F90E0242F30E0141708F042C02C
:10175000A901481B590BCA0162E370E00E940534DD
:1017600061956623A1F167838CE18E9DF0018F9DC9
:10177000F00D1124ED51FB4F028701874085802F2A
:1017800090E0242F30E0041790F5A901481B590B75
:10179000CA0162E370E00E9405346195662321F17D
:1017A0006387DF91CF911F910F91FF90EF90DF90B2
:1017B000CF90BF90AF909F900895821B930B62E3F0
:1017C00070E00E9405346111ADCF4B83AFCF8FEF36
:1017D0008783CACF821B930B62E370E00E940534BB
:1017E0006111C1CF81E0F4CF8FEF8387DACF821B05
:1017F000930B62E370E00E94053481E06623A9F355
:10180000CFCF6F927F928F929F92AF92BF92CF92E3
:10181000DF92EF92FF920F931F93CF93DF9391E0AC
:101820002091E104261390E021E03091E00434138C
:1018300020E0922329F09091E204981709F44FC018
:10184000042F162FF82EC3EED4E0D12CC12C88EC37
:10185000882E912C98EC792EEE24E39422E0A22E8F
:10186000B12C6091440170914501C4010E9405347E
:101870009B01770F440B550B61E070E080E090E036
:101880000E940D0B662E28EC30E040E050E061E055
:1018900070E080E090E00E940D0BF8821C830887C6
:1018A0006D876E86188A798AEF86DB8ACA8A198ED6
:1018B0001B821F821B861C86BB8EAA8E6C9680E2C2
:1018C000C80ED11C80E8C81681E0D80651F6F09207
:1018D000E2040093E0041093E104E092DF04DF915E
:1018E000CF911F910F91FF90EF90DF90CF90BF901D
:1018F000AF909F908F907F906F9008952F923F921E
:101900004F925F926F927F928F929F92AF92BF920F
:10191000CF92DF92EF92FF920F931F93CF93DF93BB
:1019200000D000D01F92CDB7DEB783EE94E09A834B
:1019300089839C838B83EB81FC816485662309F416
:1019400059C070E08091CD049091CE040E9405347E
:10195000892B09F04FC083818823B1F02081482F63
:10196000082E000C550B240F352F311D918142811B
:101970009413DAC0492F50E087FFD0C042175307B5
:101980000CF4C8C090831382EB81FC81878188238B
:10199000B1F02481482F082E000C550B240F352F51
:1019A000311D958146819413DBC0492F50E087FF9C
:1019B000D1C0421753070CF4C9C094831782EB813E
:1019C000FC8183858823B1F02085482F082E000CE8
:1019D000550B240F352F311D918542859413DCC0A2
:1019E000492F50E087FFD2C0421753070CF4CAC0FA
:1019F00090871386EB81FC81618D6623D1F0262FC1
:101A000030E08091CD049091CE04B9010E9405345C
:101A1000892B79F462897389620F731F6038F1E052
:101A20007F070CF4CBC060587140EB81FC81738B55
:101A3000628BEB81FC816785662309F44FC02685A4
:101A4000222309F44BC070E08091CD049091CE0424
:101A50000E940534892B09F041C08585422F022E52
:101A6000000C550B840F952F911D308938171906DE
:101A70000CF4A9C035872195268720914401309127
:101A8000450137FF02C02F5F3F4F35952795032E45
:101A9000000C440B550B60E070E0CB010E940D0B75
:101AA0006230710581059105CCF4EB81FC8181895F
:101AB0009089891B990B60914401709145010E94A6
:101AC00005349B01770F440B550B61E070E080E01B
:101AD00090E00E940D0BEB81FC8166878B819C81DD
:101AE0004C969C838B838353964009F024CF10E05F
:101AF00000E08091D9069091DA060817190708F0DE
:101B000071C020E040E060E0C8010E94F6010F5F74
:101B10001F4FEFCFEB81FC81208336CFEB81FC811F
:101B200024173507CCF32ECF4217130634F0EB8180
:101B3000FC8140838195838327CF9217130611F090
:101B40000CF022CFEB81FC819083F4CFEB81FC8100
:101B5000248335CFEB81FC8124173507CCF32DCFBF
:101B60004217130634F0EB81FC814483819587830F
:101B700026CF9217130611F00CF021CFEB81FC81D8
:101B80009483F4CFEB81FC81208734CFEB81FC81FF
:101B900024173507CCF32CCF4217130634F0EB8112
:101BA000FC8140878195838725CF9217130611F01A
:101BB0000CF020CFEB81FC819087F4CF77FF35CFFD
:101BC00060587E4F32CFEB81FC813189381719067E
:101BD00009F024F435872195268780CFEB81FC819D
:101BE00085877CCFE981FA81828D938D892B09F4D9
:101BF000E8C0828993898C0197FF02C0015E1F4F64
:101C000025E0159507952A95E1F733243394300E96
:101C1000FCE03F1201C0312C60E270E00E9405340C
:101C2000282E682F70E090E080E00E94193120E0BB
:101C300030E040E05DE30E947A316B017C011127C6
:101C40008091D9069091DA060817190708F069C043
:101C5000A701960160E070E080E89FE30E94EB320C
:101C60002B013C01E981FA81658570E090E080E01C
:101C70000E94193120E030E04FE753E40E945833CE
:101C80004B015C01E981FA81608570E090E080E0C1
:101C90000E941B31A30192010E947A31A501940197
:101CA0000E947A3129EC38EC48EC5EE30E947A31EC
:101CB0000E94D1336D83E981FA81648170E090E004
:101CC00080E00E941B31A30192010E947A31A5019C
:101CD00094010E947A3129EC38EC48EC5EE30E94D2
:101CE0007A310E94D1336B83E981FA81608170E09F
:101CF00090E080E00E941B31A30192010E947A31A2
:101D0000A50194010E947A3129EC38EC48EC5EE39D
:101D10000E947A310E94D1332D814B81C8010E94EB
:101D2000F601222009F44DC0032D10E08091D90660
:101D30009091DA060817190708F043C0E981FA8183
:101D4000608570E090E080E00E941B31A701960161
:101D50000E947A3129EC38EC48EC5EE30E947A313B
:101D60000E94D133B62EE981FA81648170E090E05F
:101D700080E00E941B31A70196010E947A3129EC74
:101D800038EC48EC5EE30E947A310E94D133A62EF3
:101D9000E981FA81608170E090E080E00E941B316F
:101DA000A70196010E947A3129EC38EC48EC5EE3F9
:101DB0000E947A310E94D1332B2D4A2DC8010E94F6
:101DC000F60189819A814C969A8389838353964040
:101DD00009F008CF8091DF04882321F00E942D04B0
:101DE0001092DF04809180048823C9F00F900F9037
:101DF0000F900F900F90DF91CF911F910F91FF9057
:101E0000EF90DF90CF90BF90AF909F908F907F909A
:101E10006F905F904F903F902F900C942D040F90F7
:101E20000F900F900F900F90DF91CF911F910F9116
:101E3000FF90EF90DF90CF90BF90AF909F908F90EA
:101E40007F906F905F904F903F902F900895CF9329
:101E5000C09150022C2F40E060E080E00E94D50944
:101E6000CF5FCC3079F0C093500220915002409166
:101E7000520260915102809153020E94D509CF9184
:101E80000C947E0C10925002F0CF6CE070E080E079
:101E900090E00E94F30ADC01CB010196A11DB11D67
:101EA00008950C943B32CF9390E080E00E94510F54
:101EB000C82F81E090E00E94510FCA3AB1F48535F5
:101EC000A1F40E940C060E94F40984E190E0909332
:101ED000DE048093DD049093DC048093DB0482E0D5
:101EE00090E09093DA048093D904CF910895CF9332
:101EF000DF93EC01CE010E94510F882359F0C83EB8
:101F000093E0D90739F021968D30A1F7C83E83E0E0
:101F1000D80711F4CFEFDFEFCE01DF91CF91089515
:101F2000AF92BF92CF92DF92EF92FF920F931F93E7
:101F3000CF93DF93B82EA92EEB017E012FEFE21A8B
:101F4000F20ACE010E94510F8F7D833441F0C70108
:101F50000E94770FEC01CF3FDC0779F712C08E01AA
:101F60000E5F1F4FC7010E94510F8F7DEB2CFA2C83
:101F70008C3499F0C8010E94770FEC01CF3FDC0749
:101F8000E1F6CE01DF91CF911F910F91FF90EF907D
:101F9000DF90CF90BF90AF900895F701C1907F017F
:101FA00081E0FDE0CF1280E091E0083E23E01207DF
:101FB0000CF490E0D82ED92AC8010E94510FD110FC
:101FC00005C0C81205C00F5F1F4FE7CFC816C9F282
:101FD000C801BECF7F928F929F92AF92BF92CF9255
:101FE000DF92EF92FF920F931F93CF93DF931092A4
:101FF0009403109293030E94EC050091D504109174
:10200000D604F8018081C5E6D0E08823A1F11093C1
:102010009603009395038A3209F453C0F12CE12C06
:10202000D0E0C0E06701580145017601F601E650B5
:10203000FE4F7490711007C0D0929403C092930326
:10204000CFEFDFEF18C0FFEFAF1ABF0AF4018081B6
:10205000082E000C990B0E943136F3E27F121AC051
:10206000982F9F7DB9F4D0929403C09293039092DD
:10207000D6048092D504CE01DF91CF911F910F91AC
:10208000FF90EF90DF90CF90BF90AF909F908F9098
:102090007F9008959FEFC91AD90A781629F2F7019F
:1020A000E650FE4FE491E11105C0F0929403E092F6
:1020B0009303C6CFFFEFEF1AFF0AE33281F72196B1
:1020C000B1CF0F5F1F4F1093D6040093D504C4E621
:1020D000D0E0D1CFAF92BF92CF92DF92EF92FF923A
:1020E0000F931F93CF93DF938C016B01E8E5F2E030
:1020F000D0E0C0E08081811168C021963F96C43154
:10210000D105C1F78FE890E00E94180A82E090E0C4
:1021100038C08FE08C9F50018D9FB00C1124F12CA2
:10212000E12CF80181918F01F701EA0DFB1DE85ABE
:10213000FD4F8283F8018081082E000C990B0E94CC
:102140001C36892B49F5F9E0EF16F10461F02FE018
:102150002C9FC0012D9F900D1124885A9D4FE80E91
:10216000F91EF70113828FE08C9FF0018D9FF00D17
:102170001124E85AFD4F1082F601D183C08386E016
:1021800090E0DF91CF911F910F91FF90EF90DF9042
:10219000CF90BF90AF900895FFEFEF1AFF0A8AE04B
:1021A000E816F10409F0BDCF8FE08C9FF0018D9F00
:1021B000F00D1124E85AFD4F81E08083818316865B
:1021C0001586128284E090E0DCCFF8018081082E31
:1021D000000C990B0E942936892B09F09ACF81E0D7
:1021E00090E0CFCF6F927F928F929F92AF92BF92EB
:1021F000CF92DF92EF92FF920F931F93CF93DF93D3
:102200006C015B01FC018081082E000C990B0E947F
:102210002936892BE1F108E512E0D0E0C0E0F801B1
:10222000808181111DC04601F12CE12CF801EE0DD9
:10223000FF1D6280F40171904F01872D072C000C67
:10224000990B0E941C36611002C0892B19F167108E
:1022500007C0FFEFEF1AFF0A8AE0E816F10431F732
:102260002196015F1F4FC431D105C9F683E090E08C
:10227000DF91CF911F910F91FF90EF90DF90CF9062
:10228000BF90AF909F908F907F906F90089581E066
:1022900090E0EECFF501D183C08386E090E0E8CFF7
:1022A000EF92FF920F931F93CF93DF938C01FC016A
:1022B0008081082E000C990B0E942936892BB1F0E1
:1022C000E80121967E01E01AF10A8991082E000C9E
:1022D000990B0E941C36892BA9F785E090E0FBE062
:1022E000EF16F1042CF084E090E002C081E090E071
:1022F000DF91CF911F910F91FF90EF9008958F92F2
:102300009F92AF92BF92CF92DF92EF92FF920F9384
:102310001F93CF93DF937C01FC018081082E000C7A
:10232000990B0E942936892BC1F48091840380FF88
:1023300004C088E690E00E94180AD0E0C0E0CE0118
:10234000DF91CF911F910F91FF90EF90DF90CF9091
:10235000BF90AF909F908F9008950CE611E0F80128
:10236000C191D1918F01A880B9804701F501C19039
:102370005F01F401D1904F01C11008C08D2D0D2CCB
:10238000000C990B0E941C36892BC9F2CD1471F3F5
:10239000F1E004371F0719F7D0CFAF92BF92DF9259
:1023A000EF92FF920F931F93CF93DF9300D0CDB79F
:1023B000DEB70E94EC05E090D504F090D604F7015A
:1023C000D080AD2C0D2C000CBB08C5010E94293615
:1023D0008C01892BC9F1BE016F5F7F4FC7010E943D
:1023E000F21007E010E0039711F189819A810E94B1
:1023F000B00A7C0110E000E00E151F05B4F4A091B6
:10240000D504B091D604E091D704F091D8048C9112
:1024100009958091D5049091D60401969093D604A5
:102420008093D5040F5F1F4FE7CF10E000E0C80195
:102430000F900F90DF91CF911F910F91FF90EF9030
:10244000DF90BF90AF90089591E0FBE2DF1290E043
:1024500081E02DE2D21280E0982B80E3A81AB10827
:1024600081E0EAE0AE16B10408F080E0982B01F1BB
:10247000E091D504F091D604808120ED280F2A3018
:1024800038F09923A1F28B3219F08D3209F04CC04B
:10249000E091D704F091D80409958091D5049091EA
:1024A000D60401969093D6048093D50490E0E0CFB3
:1024B000F0E4DF12BCCFC70101969093D60480935D
:1024C000D5040E947F117C01892B89F1E091D7040A
:1024D000F091D80480E40995F701A081B181FD0154
:1024E00001900020E9F731975F01AA1ABB0AF12C8D
:1024F000E12CEA14FB040CF09ACFA091D504B09122
:10250000D604E091D704F091D8048C91099580917C
:10251000D5049091D60401969093D6048093D50467
:10252000FFEFEF1AFF0AE5CF08E010E080CF09E0E7
:1025300010E07DCF0F931F93CF93DF938C01E09139
:10254000D704F091D80483E40995E091D704F09181
:10255000D80486E409950E94EC050E94CD11EC0197
:10256000892BE1F50E94EC058091D5049091D60469
:102570000E94CA0AC3E1D0E0009781F1FC01C0814A
:10258000D18189918823A1F0A091D504B091D6047E
:10259000E091D704F091D8048C9109958091D504ED
:1025A0009091D60401969093D6048093D504E9CFF8
:1025B0000E94EC050E94CD11EC01892B79F4E09189
:1025C000D704F091D8048CE20995E091D704F091FA
:1025D000D8048CE60995C8010E949005CE01DF91D0
:1025E000CF911F910F910895CF93DF930E94CD114A
:1025F000EC01892BB1F40E94EC05E091D504F09137
:10260000D6048081882369F0E4E7F1E0A191B191DB
:102610009C91891751F091E0EE37F907B9F71092C4
:10262000C403CE01DF91CF910895E091D704F091DA
:10263000D80409958091D5049091D6040196909381
:10264000D6048093D5040E94EC05DF91CF910C94C1
:10265000CD111092C403E091D704F091D80487E51E
:1026600009950E94EC05E091D504F091D604808193
:10267000E091D704F091D8048232C9F484E5099539
:102680008091D5049091D60401969093D6048093BE
:10269000D504E091D504F091D6048081882359F0C7
:1026A000823261F0E091D704F091D804E8CF86E55A
:1026B00009950C94F41285E290E0089590E080E092
:1026C0000895EF92FF920F931F93CF93DF9300D063
:1026D000CDB7DEB71092C4030E94EC050091D5047B
:1026E0001091D604C8010E945011059709F057C0F7
:1026F000BE016F5F7F4FC8010E94F210039721F166
:102700008DEF92E00E94B00589819A810E94B00A03
:102710007C0110E000E00E151F050CF5A091D5041A
:10272000B091D604E091D704F091D8048C9109952A
:102730008091D5049091D60401969093D60480930D
:10274000D5040F5F1F4FE7CFBE016F5F7F4FC801FA
:102750000E946A100297A1F68BE090E017C00E94D9
:10276000EC05E091D504F091D60480818D33D1F44D
:102770003196F093D604E093D504E091D704F0911C
:10278000D80409950E94EC050E94F4120F900F9056
:10279000DF91CF911F910F91FF90EF9008958AE004
:1027A00090E0F4CF8CE090E0F1CF1092C4030E944F
:1027B000EC05E091D504F091D6048081882309F4DA
:1027C00057C08AEF92E00E94B0050E94F412009771
:1027D00009F050C00E94EC05E091D504F091D604B8
:1027E00080818C3219F081E190E00895E091D70466
:1027F000F091D8048CE209958091D5049091D6048B
:1028000001969093D6048093D5040E94EC05E09144
:10281000D504F091D6048081882329F30E94F41214
:10282000009741F50E94EC05E091D504F091D604A3
:1028300080818C3219F082E190E00895E091D70414
:10284000F091D8048CE209958091D5049091D6043A
:1028500001969093D6048093D5040E94EC05E091F4
:10286000D504F091D6048081882329F30C94F412C6
:1028700080E190E00895CF93DF93E091D504F0914B
:10288000D604808181110AC084EF92E00E94B005D5
:10289000D0E0C0E0CE01DF91CF9108950E94EC0519
:1028A0000E94F412EC01892BA9F70E94EC05E0913B
:1028B000D504F091D6048081811109C00E94AA0537
:1028C00081EF92E00E94B0051092C403E3CF0E9412
:1028D000EA0F0D97A9F4E091D704F091D8048CE2A7
:1028E00009950E94EC05E091D504F091D604808111
:1028F000882349F00E94F412009701F3EC01CACF3B
:10290000CFE1D0E0C7CFC1E0D0E0C4CF1F93CF93D9
:10291000DF93833109F445C108F08FC0883060F53A
:10292000863008F01EC1823009F4E2C058F48823D2
:1029300009F4CEC0813009F4D8C0DF91CF911F9146
:102940000C946113843009F4E9C008F4DAC00E94E1
:10295000EC05E091D504F091D6048081882309F438
:1029600027C28AE193E00E94B0051092C403DF9170
:10297000CF911F910C94F4128C3009F4F7C050F5EC
:10298000883009F40CC28A30C1F68091C603C0E3D6
:10299000D0E0882309F4A4C0C0919703D091980394
:1029A0002196D0939803C09397036C2F81E00E94E7
:1029B0007705CE010E949A12EC01809197039091C5
:1029C00098030196909398038093970381E08093F6
:1029D000C40386C08F3009F4F8C0813109F0ADCF4F
:1029E0001092C4030E94EC05E091D504F091D60446
:1029F0008081C6E2D0E0882309F472C08FE393E0BF
:102A00000E94B0050E94F412EC01892B09F068C005
:102A10000E94EC05E091D704F091D8048CE209956E
:102A2000E091D504F091D6048081811173C18BE3CC
:102A300093E00E94B00510E077C1803209F4F5C040
:102A4000E8F48E3180F4873108F0D6C0843109F47F
:102A5000B3C0863109F071CF8091C603C1E3D0E0E5
:102A600081113CC03DC08E3109F4D5C08F3109F0D1
:102A700064CF1092C40386E293E09BC0843209F4D1
:102A800027C150F4823209F404C108F4D9C0DF919F
:102A9000CF911F910C942913873209F46EC18436AB
:102AA00009F41FC1853209F048CF1092C403809108
:102AB000C603C4E3D0E0882399F00E944B05C3E32A
:102AC000D0E08F3F980761F001960E94C10506C0D3
:102AD00088E093E00E94B0051092C403D0E0C0E00B
:102AE000CE01DF91CF911F9108958DE093E0F2CF59
:102AF0001092C40381E193E00E94B0050E94EC05AE
:102B000008C01092C4030E94EC0584E193E00E9487
:102B1000B005DF91CF911F910C943B141092C40328
:102B20000E94EC05E091D504F091D60480818823C1
:102B300009F438C187E193E00E94B0050E94F412C5
:102B4000EC01892B69F60E94EC050E94EA0F889738
:102B500009F02BC1E091D704F091D8048CE20995DB
:102B6000CDCFDF91CF911F910C94D5138091C603E7
:102B7000882309F420C183E00E94D9050E94AA0598
:102B80008091970390919803019690939803809376
:102B9000970321E02093C403DF91CF911F910C9400
:102BA0009A128091C603CDE2D0E0811199CF8DE1D8
:102BB00093E00E94B00592CF8091C603CCE2D0E0B2
:102BC00081118ECF80E293E0F4CF8091C603CEE2F4
:102BD000D0E0882309F484CF84E00E94D905809155
:102BE000970390919803019690939803809397038D
:102BF00081E08093C40372CF83E293E00E94B0052A
:102C0000A0919503B0919603E091D704F091D80478
:102C10008C91099561CF83E293E00E94B005E09129
:102C2000D704F091D8048BE6F4CF1092C4038091BE
:102C3000C603CBE2D0E0811153CF89E293E0B9CF54
:102C40001092C4038091C603C9E2D0E0811148CF3D
:102C50001092C5031092C2031092C1031092980300
:102C60001092970310921A041092190481E090E0D8
:102C70009093C8038093C7031092C3038093C60345
:102C80008FE293E00E94B0050E94AA058CE293E0D7
:102C900090CF1092C4038091C603CAE2D0E088238B
:102CA00009F41ECF8091C303882359F085E393E094
:102CB0000E94B00583E991E00E94A40A1092C60325
:102CC0000DCF82E393E00E94B0058AE991E0F4CF52
:102CD0001092C4030E9429130E94AA0588E393E07E
:102CE00068CF1092C403E091D504F091D60480819E
:102CF000882309F4F3CEE091D704F091D804099524
:102D00008091D5049091D60401969093D604809337
:102D1000D504E9CF0E94EA0F8F319105A9F48BE326
:102D200093E00E94B00511E0E091D704F091D8043F
:102D30008CE20995E091D704F091D80487E5111150
:102D400001C08EE40995CCCE8697C1F50E94EC05B2
:102D50000E94F4120097A9F50E94EC05E091D504B9
:102D6000F091D6048081882309F465CE0E94EA0F91
:102D70004F97C9F2C5E3D0E0B3CE1092C40380915F
:102D8000C603C7E3D0E0882309F4AACE0E944B050E
:102D9000C8E3D0E08F3F980709F097CEA1CEC4E0FA
:102DA000D0E09ECEC9E3D0E09BCECAE3D0E098CE7F
:102DB000CFE0D0E095CECFE2D0E092CEC6E3D0E037
:102DC0008FCEEC018DCEEF92FF920F931F93CF9396
:102DD000DF938A3009F48DE09FEB980F9A3108F465
:102DE000805E2091190430911A04CEE1D0E02035A4
:102DF000310551F1F901E753FC4F8D3009F0D4C092
:102E0000108289EC93E09093D6048093D50470935C
:102E1000D8046093D7040E94EC05182FE091D504E4
:102E2000F091D60480818332B9F4D0E0C0E0809183
:102E3000C7039091C80301969093C8038093C7037A
:102E400010921A0410921904CE01DF91CF911F91B4
:102E50000F91FF90EF9008950E94EA0FEC018536E4
:102E6000910519F38091C603882309F484C08091E9
:102E7000C503181708F089C08091C5032091C103CC
:102E80003091C203F901EE0FFF1FEE0FFF1FEB564B
:102E9000FC4FDF011396181708F069C021153105A2
:102EA00089F58093C503C1E2D0E081E08093C3033C
:102EB0008091C603882391F08DE991E00E94070A72
:102EC0006091C7037091C803072E000C880B990B03
:102ED0000E94680A83EA91E00E94070A85EA91E06D
:102EE0000E94070ABE010D2E000C880B990B0E9450
:102EF000680A83EA91E00E94070A89EC93E00E9445
:102F0000A40A40C08C910081033029F1043019F1EA
:102F1000013009F68093C503181316C0C631D105D8
:102F200099F40E9464057C0101960E94C1050E94EB
:102F3000AA05C7010E94CD0561E06E0D81E00E94E7
:102F400077050093C40398CF0E9464050E94CD05C5
:102F50000E94AA0591CF8093C5030E9464057C015D
:102F60000E94C1050E94AA05C7010196EFCF809378
:102F7000C503181313C08C2F0E948614EC01892BF3
:102F800009F093CF0E94AA0552CF8117A0F7809134
:102F9000C403882331F01093C503EDCFC4E2D0E021
:102FA00084CFC2E2D0E081CF2F5F3F4F30931A042D
:102FB000209319048083D0E0C0E046CFAF92BF9247
:102FC000CF92DF92EF92FF920F931F93CF93DF93F5
:102FD00000D0CDB7DEB76C010E94FE0500919103D1
:102FE00010919203D801FC90AF2C0F2C000CBB0861
:102FF000C5010E942936AC01892B09F43FC0BE01EE
:103000006F5F7F4FC8010E94F2107C01039769F146
:10301000E980FA80C7010E94B00A800F911F909347
:103020009203809391038FE08E9DF0018F9DF00DB0
:103030001124E85AFD4F8181811114C08585968540
:10304000F6019183808321E0822F0F900F90DF9112
:10305000CF911F910F91FF90EF90DF90CF90BF9095
:10306000AF90089537E0E32EF12C87EA90E00E94BC
:103070002403C7010E94940A20E0E6CF91E0FBE21E
:10308000FF1290E081E02DE2E22EFE1080E0982B0E
:1030900020E3A21AB10881E0AAE0AA16B10408F060
:1030A00080E0982B09F45BC0BDE261E070E0FB12A8
:1030B00008C00F5F1F4F10939203009391036FEFAF
:1030C0007FEFE0919103F091920380818B3229F49C
:1030D0003196F0939203E0939103E0919103F09184
:1030E0009203A0918F03B091900320E08AE08F01BA
:1030F000AE17BF0779F131910F2EF0EDFF2EF02DB5
:10310000F30E0F2EF9E0EF2EF02DEF14A0F4009344
:10311000910310939203469FC001479F900D569FC5
:10312000900D1124D6018D939C9321118DCF2AE00F
:10313000E22EF12C9ACF849F8001859F100D1124DF
:10314000232F330F330B20533109A901400F511F97
:10315000292FCDCFB0939203A0939103DCCFB0E49D
:10316000FB1224C0C80101969093920380939103AF
:103170000E947F110097F1F0FC01A081B181FD0157
:1031800001900020E9F73197EA1BFB0B2091910396
:1031900030919203E20FF31FF0939203E0939103B7
:1031A000DC011296ED91FC9109954ACF98E0E92E49
:1031B000F12C5BCF89E0E82EF12C57CFDF92EF9214
:1031C000FF920F931F93CF93DF9300D000D0CDB722
:1031D000DEB7D82ECE0103960E94DE17882391F029
:1031E0000091910310919203C8010E94CA0A7C01C8
:1031F0000097A1F48091840380FF04C087EB90E0E6
:103200000E94180A0F900F900F900F90DF91CF91AE
:103210001F910F91FF90EF90DF900895FC01A08126
:10322000B181FD0101900020E9F73197EA1BFB0B0A
:10323000E00FF11FF0939203E0939103CE0101960A
:103240000E94DE178823F1F269817A81D7011296F4
:10325000ED91FC918B819C810995182FE091910350
:10326000F091920320918F033091900380818D30F3
:1032700049F2E217F30731F2CF01019690939203DE
:103280008093910341814D3009F4BCCF2817390751
:1032900009F4B8CF6091DB047091DC040E94900FB8
:1032A00097FDB0CFD112AECF9093DE048093DD04B2
:1032B000A9CFCF92DF92EF92FF921F93CF93DF932C
:1032C00000D000D0CDB7DEB76C01CE0101960E94D0
:1032D000DE17182F811102C010E014C00E94FE05F5
:1032E0006091910370919203DB018C918D3029F0F4
:1032F000A4E7B1E09D018C3291F489819A81F601B5
:1033000091838083812F0F900F900F900F90DF910A
:10331000CF911F91FF90EF90DF90CF900895F9012A
:10332000419151919F01FA019081891749F0F1E093
:103330002E373F07A1F78DEA91E00E94A40ACCCF77
:10334000ED90FD90F7019081891731F0F1E0AE37F3
:10335000BF07B1F7F12CE12CFB013196F0939203FA
:10336000E0939103CE0103960E94DE17182F882365
:1033700009F4B2CF6B817C81D7011196ED91FC915C
:1033800089819A810995BBCFCF92DF92EF92FF920C
:103390000F931F93CF93DF9300D0CDB7DEB76C01AF
:1033A0007B018A01CE0101960E94591981110CC03E
:1033B00080E00F900F90DF91CF911F910F91FF90C0
:1033C000EF90DF90CF9008958981F6018083E0919E
:1033D0009103F091920320918F03309190038081AB
:1033E0008D3031F3E217F30719F3CF010196909373
:1033F00092038093910341814D30D1F22817390710
:10340000B9F2CE0101960E945919882389F2898167
:10341000F7018083E0919103F0919203CF0101962F
:10342000909392038093910321812D3009F2209192
:103430008F03309190032817390709F4B9CFCE01D3
:1034400001960E945919882309F4B2CF9981F80195
:103450009083AFCFFF920F931F93CF93DF93EC0135
:10346000F62E08811981C8010E943B32F81621F01E
:103470006F2DC8010E944332CE01DF91CF911F9181
:103480000F91FF900895CF93DF9300D0CDB7DEB7B3
:103490002091560230915702A9014F5F5F4F509320
:1034A000570240935602293E93E039073CF4682FB7
:1034B0003A832983CE0101960E942A1A0F900F9019
:1034C000DF91CF910895EF92FF920F931F93CF93C7
:1034D000DF9300D0CDB7DEB783E3E82E86E0F82E89
:1034E00002E010E0F70161917F011A830983CE01A8
:1034F00001960E942A1A0F5F1F4F0930110591F79C
:1035000081E00F900F90DF91CF911F910F91FF906D
:10351000EF900895CF93DF9300D0CDB7DEB71A8236
:10352000198260E0CE0101960E942A1A81E090E0A3
:103530009A83898360E0CE0101960E942A1A84E171
:1035400090E09A83898360E0CE0101960E942A1A56
:103550000F900F90DF91CF9108952F923F924F924D
:103560005F926F927F928F929F92AF92BF92CF9213
:10357000DF92EF92FF920F931F93CF93DF93CDB71C
:10358000DEB763970FB6F894DEBF0FBECDBFFC0168
:103590008B017093900360938F03DB011C92DC011D
:1035A0008D91B0939203A0939103873509F4A1C044
:1035B0000CF06AC0803509F41BC5DCF5893409F4C8
:1035C000CAC08D3409F453C1833409F06AC09181B3
:1035D0009D3009F466C0A017B10709F462C09F01CD
:1035E0002E5F3F4F3093920320939103943509F45B
:1035F00076C70CF05BC7963411F40C9404230CF0DE
:1036000031C7933411F40C94EA22943409F46BC753
:10361000913409F046C08091D9049091DA04029760
:1036200009F03FC083E090E09093DA048093D904DE
:1036300038C0833511F40C945624863511F40C945B
:103640006823823571F591819D3059F1A017B1073A
:1036500041F13296F0939203E0939103933511F484
:103660000C945E2314F00C941B239D3411F40C94E1
:1036700033230CF0CDC7933411F40C9462239834A7
:1036800081F40E94FF060DC0803709F4B1C414F51F
:10369000893609F460C08D3609F4E9C0833609F42F
:1036A00096CF63960FB6F894DEBF0FBECDBFDF9105
:1036B000CF911F910F91FF90EF90DF90CF90BF902F
:1036C000AF909F908F907F906F905F904F903F90C2
:1036D0002F900895833711F40C94562424F48237E4
:1036E00009F4B1CFDECF863711F40C946823873705
:1036F000C1F681818D30A9F2A017B10791F23296FF
:10370000F0939203E0939103863511F40C94002713
:1037100014F00C94F2268C3411F40C94FC268435AD
:1037200009F0BFCFE0909103F0909203D7016C9124
:103730006D3009F4B6CF0E151F0509F4B2CF8AE338
:1037400096E00E94D702BFEFEB1AFB0AF0929203B9
:10375000E0929103E7CF91819D3009F4A2CFA017A9
:10376000B10709F49ECF3296F0939203E093910350
:10377000963509F43FC034F59D3461F144F4943436
:1037800009F08FCF0E946B060E94940A8ACF903571
:1037900009F43FC0933509F084CF6091D90470914A
:1037A000DA04072E000C880B990B0E94680A6091BE
:1037B000840370E090E080E04AE00E94240A0E94C6
:1037C000140A6FCF903729F184F49436D9F29D36DC
:1037D00009F067CFCE0101960E945919882309F498
:1037E00060CF8981809384035CCF9337B1F29637A1
:1037F00009F057CF4091F1065091F2066091ED0625
:103800007091EE068AE396E00E9437020E94140A45
:1038100048CF8FEF90E00E94180A04E110E06801A1
:10382000BFEFCB1ADB0AC8010E94510FF82EEDE062
:103830008E130DC00E94140A8601F8EECF16F3E035
:10384000DF0669F785EE90E00E94180A2ACF682FFC
:103850008AE396E00E94D702F110EECF80EF90E06D
:103860000E942403C80143970E94940A1ACF8181C1
:103870008D3009F416CFA017B10709F412CF9F01BC
:103880002E5F3F4F3093920320939103873509F4C5
:1038900021C10CF003C18D3409F4E0C20CF0C4C0A6
:1038A000833409F46FC3863409F444C2813409F0C7
:1038B000F8CE82818D3009F4F4CE0217130709F493
:1038C000F0CECE0105960E945919882309F4E9CE5D
:1038D000E0919103F091920320918F033091900336
:1038E00080818D3009F4DDCEE217F30709F4D9CEDB
:1038F000CF010196909392038093910341814D30C3
:1039000009F4CFCE2817390709F4CBCECE010396A0
:103910000E945919882309F4C4CEE0919103F091D3
:10392000920380818D3009F048C16D817E81072E20
:10393000000C880B990B0E941B316B017C016B8181
:103940007C81072E000C880B990B0E941B3120E014
:1039500030E044EB53E40E945833688779878A87C4
:103960009B8720E030E0A901C701B6010E94003426
:1039700046015701181624F0B7FAB094B7F8B0947E
:103980006091370670913806072E000C880B990B52
:103990000E941B3120E030E040E05FE30E947A317A
:1039A0002B013C01A50194010E94EC329B01AC016A
:1039B0000E94EC322BED3FE049E450E40E947A3162
:1039C000288539854A855B850E947A316C877D8799
:1039D0008E879F87A3019201C501B4010E94EB323B
:1039E0009B01AC010E94EC322BED3FE049E450E436
:1039F0000E947A31288539854A855B850E947A3113
:103A00002B013C0120E030E0A901C701B6010E9472
:103A1000003487FDC9C0A30192016C857D858E8528
:103A20009F850E94B12B3DCE833509F4B9C28635FE
:103A300009F4BBC2823509F034CE82818D3009F49D
:103A400030CECE0103960E945919882309F429CE5D
:103A5000E0919103F091920380818D3009F0BBC118
:103A60006B817C81072E000C880B990B0E941B3107
:103A700020E030E044EB53E40E94583320913504B9
:103A80003091360440913704509138040E947A31C5
:103A90009B01AC0150580E94B12B03CE8D3609F426
:103AA000DDC154F4833609F46DC2863609F442C18F
:103AB000813609F0F6CDFDCE833709F471C224F4C6
:103AC000823709F4BACFEDCD863709F46EC2873755
:103AD00009F0E7CD82818D3009F4E3CD0217130799
:103AE00009F4DFCDCE0105960E945919882309F407
:103AF000D8CDE0919103F091920320918F03309102
:103B0000900380818D3009F4CCCDE217F30709F4DE
:103B1000C8CDCF0101969093920380939103418188
:103B20004D3009F4BECD2817390709F4BACDCE01BE
:103B300003960E945919882309F4B3CDE0919103AB
:103B4000F091920380818D3009F4ABCDCF010196C5
:103B5000909392038093910321812D3009F4A1CD9C
:103B600020918F03309190032817390709F499CDDC
:103B7000CE0101960E945919882309F492CD8981BA
:103B80009A812B813C814D815E8150933406409314
:103B9000330630933606209335069093380680938B
:103BA00037060E94631A7DCD2C853D854E855F8545
:103BB000C301B2010E94B12B74CDCF010196909345
:103BC00092038093910321812D3009F46ACD2091D5
:103BD0008F03309190032817390709F462CDCE0185
:103BE00001960E945919882309F45BCD69817A8175
:103BF000072E000C880B990B0E941B3120E030E04F
:103C000040E251E40E9458332B013C016D817E81DA
:103C1000072E000C880B990B0E941B316B017C0155
:103C20006B817C81072E000C880B990B0E941B3145
:103C300020E030E044EB53E40E94583368877987F2
:103C40008A879B8720E030E0A901C701B6010E9466
:103C5000003446015701181624F0B7FAB094B7F8AB
:103C6000B0946091370670913806072E000C880BCF
:103C7000990B0E941B3120E030E040E05FE30E949E
:103C80007A316C877D878E879F87A50194010E947A
:103C9000EC329B01AC010E94EC322BED3FE049E499
:103CA00050E40E947A31288539854A855B850E94D7
:103CB0007A31688B798B8A8B9B8B2C853D854E85E1
:103CC0005F85C501B4010E94EB329B01AC010E94EB
:103CD000EC322BED3FE049E450E40E947A31288534
:103CE00039854A855B850E947A31688779878A871A
:103CF0009B8720E030E0A901C701B6010E94003493
:103D00008301720187FD0BC0288539854A855B8553
:103D1000688979898A899B890E94892CC2CC2889E3
:103D200039894A895B89688579858A859B850E945E
:103D3000892CB7CC82818D3009F4B3CCCE010396A7
:103D40000E945919882309F4ACCCE0919103F091B9
:103D5000920380818D3069F46B817C81072E000C89
:103D6000880B990B0E941B319B01AC010E94B12B67
:103D700098CCCF0101969093920380939103818117
:103D80008D3009F48ECCCE0101960E9459198823FA
:103D900009F487CC6B817C81072E000C880B990B72
:103DA0000E941B314B015C0169817A81072E000C56
:103DB000880B990B0E941B3120E030E040E251E477
:103DC0000E9458337B018C01A5019401C501B40107
:103DD0000E94892C66CCCF01019690939203809328
:103DE000910381818D3009F45CCCCE0101960E9453
:103DF0005919882309F455CC6B817C81072E000C5E
:103E0000880B990B0E941B3120E030E044EB53E417
:103E10000E94583320913504309136044091370484
:103E2000509138040E947A314B015C0169817A819A
:103E3000072E000C880B990B0E941B3120E030E00C
:103E400040E251E40E945833A501940150587B018F
:103E50008C01C501B4010E94892C23CC82818D3054
:103E600009F41FCC0217130709F41BCCCE010596E9
:103E70000E945919882309F414CCE0919103F09120
:103E8000920320918F033091900380818D3009F44B
:103E900008CCE217F30709F404CCCF010196909304
:103EA00092038093910341814D3009F4FACB281796
:103EB000390709F4F6CBCE0103960E9459198823DD
:103EC00009F4EFCBE0919103F091920380818D3062
:103ED000B9F46B817C81072E000C880B990B0E9432
:103EE0001B316B017C016D817E81072E000C880BDC
:103EF000990B0E941B31A70196010E94B12BD1CBD7
:103F0000CF010196909392038093910321812D30EC
:103F100009F4C7CB20918F033091900328173907FC
:103F200009F4BFCBCE0101960E945919882309F4E8
:103F3000B8CB69817A81072E000C880B990B0E94FF
:103F40001B3120E030E040E251E40E9458336B0125
:103F50007C016B817C81072E000C880B990B0E94E1
:103F60001B314B015C016D817E81072E000C880B9B
:103F7000990B0E941B3187017601A50194010E94D3
:103F8000892C8FCB0E94D206882329F08EEB91E0FA
:103F90000E94A40A86CB85EC91E00E94A40A81CB02
:103FA0000E94E3060E94F1067CCB8AE391E00E9426
:103FB000180A8AE291E00E942403809133069091CE
:103FC00034060E94940A89E191E00E9424038091C2
:103FD0003506909136060E94940A89E091E00E948D
:103FE000240380913706909138060E94940A59CB99
:103FF00081818D3009F455CBA017B10709F451CB5D
:104000009F012E5F3F4F3093920320939103883599
:1040100009F4AAC00CF053C0893409F463C06CF4ED
:10402000833409F4E5C0863409F4F5C0813409F01D
:1040300038CB81E08093800434CB8F3409F48BC07B
:104040000CF034C08E3409F02CCB82818D3009F411
:1040500028CB0217130709F424CB082E000C990B68
:104060000E943136EEE9E80FE83108F01ACB0E2E47
:10407000000CFF0BE25CFF4D0C9419342322252227
:10408000511B511B511B2022511B511B511B1A222A
:10409000511B2722511B511B511B511B3022511BFD
:1040A000511B511B511B2E22511B2A22823509F410
:1040B000CDC0833509F0F5CA10928004F2CA8E365D
:1040C00009F4C3CF0CF040C0833609F491C024F446
:1040D000813609F4AECFE5CA863609F49CC089362C
:1040E00009F0DFCACE0101960E945919882309F40C
:1040F000D8CA1981E0919103F0919203CF01019602
:10410000909392038093910321812D3009F4C9CAC1
:1041100020918F03309190032817390709F4C1CA01
:10412000AE014D5F5F4FBE016B5F7F4FCE010796C3
:104130000E94C419882309F4B4CA212F4B816D81D0
:104140008F810E94D509ADCA823709F47FC034F44B
:104150008F3609F0A6CA0E94F409A3CA833709F46E
:10416000ABCF883709F09DCACE0101960E9459193C
:10417000882309F496CA1981112309F465C0153101
:1041800008F014E1E0919103F0919203CF010196C0
:10419000909392038093910321812D3009F481CA79
:1041A00020918F03309190032817390709F479CAB9
:1041B000AE014D5F5F4FBE016B5F7F4FCE01079633
:1041C0000E94C419882309F46CCACB80DD80EF807B
:1041D000F12C85E1811B182F0C2D2D2D4E2D612FDB
:1041E0008F2D0E942B0BF3948CE0F812F5CF59CA57
:1041F000AE014F5F5F4FBE016D5F7F4FCE010596F1
:104200000E94C419882309F44CCA49816B818D81AD
:104210000E94010C46CACE0101960E9459198823BA
:1042200009F43FCA8981853158F4882359F025E182
:1042300030E0281B3109309345012093440131CAF5
:1042400084E1F5CF81E0F3CF11E09CCF03EE14E0E1
:10425000F12CCC24C394D12C6F2D70E090E080E041
:104260000E94193120E030E040E451E40E945833CC
:1042700020E030E040EC53E40E947A310E94CA33DF
:10428000D80153967C936E93529760E071E080E082
:1042900090E00E94F30AF801608377278827992726
:1042A00020E031E040E050E00E940D0BD801119673
:1042B0006C9311972C9130E050E040E060E070E0AA
:1042C000CB010E940D0BF801628360E071E080E099
:1042D00090E00E94F30AD80114966C937727882700
:1042E000992720E031E040E050E00E940D0BF801FA
:1042F0006583248130E050E040E060E070E0CB0175
:104300000E940D0BD80116966C9360E071E080E07E
:1043100090E00E94F30AF8016087772788279927A1
:1043200020E031E040E050E00E940D0BD8011996EA
:104330006C93199718962C9130E050E040E060E0C3
:1043400070E0CB010E940D0BF801628767E070E01E
:1043500080E090E00E94F30A63507109810991099D
:10436000D80113966C9367E070E080E090E00E94C3
:10437000F30A6350710981099109F801678367E0C5
:1043800070E080E090E00E94F30A635071098109B7
:104390009109D8011B966C936CE970E080E090E085
:1043A0000E94F30A6C597F4F8F4F9F4FF80164872B
:1043B00067E070E080E090E00E94F30A63507109CA
:1043C00081099109D80158966C9363E670E080E00A
:1043D00090E00E94F30A6F5F7F4F8F4F9F4FF8016D
:1043E000618F60E871E080E090E00E94F30AD801FC
:1043F00055967C936E9354979B01770F440B550B06
:1044000060E070E0CB010E940D0BF801778B668BAA
:10441000D38EC28EF394045E1F4FFCE0FF121CCFBC
:104420001092E2041092E0041092E10481E0809383
:10443000DF0437C940E060E080E00E94010C31C930
:1044400040E06FEFF9CF4FEFF6CF4FEFFACF4FEFDE
:1044500060E002C040E06FEF8FEFEFCF4FEFFBCF98
:1044600040E0F6CF9A3409F46CC09D3409F477C06B
:10447000993409F016C982818D3009F412C90217E6
:10448000130709F40EC96091DB047091DC04C901C3
:104490000E94900F8C0197FD04C90E94D2068111E1
:1044A00000C91093DE040093DD04FBC8963609F4BE
:1044B000ABC04CF4933609F48DC09436A1F091361C
:1044C00009F0EFC8A8C89A36E1F11CF4993699F2C0
:1044D000E8C89D3609F443C0943709F0E2C881E08A
:1044E0000E94DE18DEC882818D3009F4DAC8CE0160
:1044F00001960E945919882309F4D3C80E943E05E9
:10450000AB01BC0129813A81E4E6E29FC001E39F4F
:10451000900D1124092E000CAA0BBB0B840F951FC4
:10452000A61FB71F8093C1049093C204A093C30435
:10453000B093C40484E090E09093DA048093D904AB
:10454000B0C86091DB047091DC04C9010E94900F37
:1045500097FDA7C89093DE048093DD04A2C8CE0126
:1045600001960E945919882309F49BC8E091910390
:10457000F091920320918F033091900380818D30D0
:1045800009F48FC8E217F30709F48BC8CF0101962D
:10459000909392038093910341814D3009F481C837
:1045A0002817390709F47DC86091DB047091DC0499
:1045B0000E94900F8C0197FD74C80E946B062981A0
:1045C0003A81821793070CF06CC81093DE040093B5
:1045D000DD0467C86091DB047091DC04C9010E94AE
:1045E000900F8C0197FD5DC862E070E080E090E084
:1045F0000E94F30A672B682B692B09F052C81093AD
:10460000DE040093DD044DC880E00E94DE1849C836
:10461000903511F1923509F044C88091D9049091F8
:10462000DA04019709F03DC882E090E09093DA0443
:104630008093D90436C89D36B1F03CF4933609F422
:1046400041C0983609F41DC82CC8923731F393370E
:10465000A9F1903709F025C881E090E09093DA0441
:104660008093D9041EC88091D3049091D404892BDF
:1046700011F00C94511B0E94FF060E948A1A81E0DF
:1046800090E09093D4048093D30484E190E09093DD
:10469000570280935602109255021092540280E8FD
:1046A0008093530280935202809351020E94F40936
:1046B000109250020E94270F0C94511B0E94530F1E
:1046C0000C94511B0E94FF060E948A1A0C94511BE5
:1046D00081818D3011F40C94511BA017B10711F496
:1046E0000C94511B8F010E5F1F4F10939203009388
:1046F0009103863509F4AFC01CF5833451F183353D
:1047000011F00C94511BC8010E9450118130910589
:1047100071F10497C1F1BE016D5F7F4FC8010E9426
:10472000F21081309105D9F58091840380FD02C09B
:104730000C94511B8CE891E00E94180A0C94511BB8
:10474000833709F3863709F486C0833611F00C9459
:10475000511B0E940C068091840380FD02C00C94C2
:10476000511B89E491E00E9424030C94511B809119
:10477000840380FD02C00C94511B80EC91E00E94E8
:1047800024030C94511B8091840380FD02C00C947F
:10479000511B86EA91E00E9424030C94511B03975D
:1047A000A1F4BE016D5F7F4FC8010E946A1002979D
:1047B00061F48091840380FD02C00C94511B84E756
:1047C00091E00E94180A0C94511B009191031091E2
:1047D00092038B819C810E94B00A800F911F90935D
:1047E000920380939103DC012C912D3361F0809131
:1047F000840380FD02C00C94511B83E591E00E946C
:10480000180A0C94511B0196909392038093910384
:10481000CE0101960E945919882311F40C94511B62
:104820008B819C812FE0289FF001299FF00D11249E
:10483000E85AFD4F89819A819687858711828091F8
:10484000840380FD02C00C94511B8EE491E00E9411
:10485000180A0C94511BBE016F5F7F4FC8010E9464
:10486000F210039751F48091840380FF06C089ED14
:1048700091E00E94180A0C94511B89819A812FE0C3
:10488000289FF001299FF00D1124E85AFD4F8181E6
:10489000882331F08FEE91E00E94180A0C94511B8E
:1048A000858596850E94940A0C94511B81818D30D8
:1048B00011F40C94511BA017B10711F40C94511B67
:1048C0009F012E5F3F4F30939203209391038435D5
:1048D00021F0843711F00C94511B82818D3011F43A
:1048E0000C94511BCE0103960E945919882311F490
:1048F0000C94511BE0919103F091920380818D30D3
:1049000011F40C94511BCF01019690939203809364
:10491000910381818D3011F40C94511BCE010196CD
:104920000E945919882311F40C94511BE0919103B2
:10493000F091920380818D3011F40C94511BCF01C2
:10494000019690939203809391038181873509F4B6
:104950003EC0BCF58E3411F00C94511BE981FA81F4
:10496000F987E887CF01092E000CAA0BBB0B8C87B7
:104970009D87AE87BF872B803C8080913F018E3022
:1049800009F442C08F3F11F00C94511B8EE08093CC
:104990003F01E0E6F3E014911F3F11F40C94511B2A
:1049A000113009F412C108F4F7C0123009F42BC118
:1049B00017FF02C00C94511B61E08EE00E94D703E8
:1049C00030C08E3659F2873711F00C94511B0E947B
:1049D0003E05AB01BC0189819A81092E000CAA0B0E
:1049E000BB0B840F951FA61FB71F8093C104909324
:1049F000C204A093C304B093C40484E090E09093F5
:104A0000DA048093D904AACFE0E6F3E0149117FF0B
:104A100002C00C94511B61E08EE00E94D703112369
:104A2000A1F0B12CA12C60E072E18AE790E0A50131
:104A300091010E94513269017A0191E0C91AD108AD
:104A4000E108F108123009F06FC14101B12CA12C2D
:104A500060E072E18AE790E0A50191010E94513285
:104A600029013A017A016901A1E0CA1AD108E108D5
:104A7000F108BFEFCB16D104E104F10409F00CF406
:104A800047C160E472E48FE090E0A50191010E94CB
:104A9000513269017A01E1E0CE1AD108E108F1084A
:104AA000123009F0D2C082E0FFEFCF16D104E1044A
:104AB000F10409F00CF42FC160E970ED83E090E09F
:104AC000A50191010E94513269017A0181E0C81A61
:104AD000D108E108F10883E09FEFC916D104E10491
:104AE000F10409F00CF417C168E478EE81E090E07D
:104AF000A50191010E94513269017A0181E0C81A31
:104B0000D108E108F10884E09FEFC916D104E1045F
:104B1000F10409F00CF4FFC064E274EF80E090E06F
:104B2000A50194010E94513269017A01E1E0CE1A97
:104B3000D108E108F10885E0FFEFCF16D104E104C8
:104B4000F10409F008F4E7C062E17AE780E090E060
:104B5000A50194010E94513269017A01A1E0CA1AAB
:104B6000D108E108F10886E0BFEFCB16D104E104DB
:104B7000F10409F008F4CFC0730162019AE0F594E2
:104B8000E794D794C7949A95D1F7E1E0CE1AD1086B
:104B9000E108F10887E0BFC014BC15BC84B5826091
:104BA00084BD85B5816085BDEDE8F3E0E491F0E07A
:104BB000EE0FFF1FEB58FC4F85919491EFE6F3E069
:104BC000E491E093860310E026CF109280001092CB
:104BD00081008091810088608093810080918100B4
:104BE000816080938100EDE8F3E0E491F0E0EE0F66
:104BF000FF1FEB58FC4F85919491EFE6F3E0E491B1
:104C0000E093850308CF1092B0001092B10080911C
:104C1000B00082608093B0008091B1008160809389
:104C2000B100EDE8F3E0E491F0E0EE0FFF1FEB5888
:104C3000FC4F859194919093270480932604EFE68E
:104C4000F3E0E491E0932804E6CEAFEFCA16D10476
:104C5000E104F10409F00CF465C068E478EE81E049
:104C600090E0A50191010E94513269017A01B1E001
:104C7000CB1AD108E108F10884E011115DCF83E07F
:104C8000EFEFCE16D104E104F104C9F0C4F062E103
:104C90007AE780E090E0A50194010E945132690119
:104CA0007A01F1E0CF1AD108E108F1088FEFC816B8
:104CB000D104E104F10411F008F0B4C084E095B52A
:104CC000987F892B85BD8C859D85AE85BF852FEF0F
:104CD0003FEFA901892B8A2B8B2B09F04FC0113094
:104CE00009F45CC0123009F46CC011110C94511B12
:104CF000C7BC20938B0330938C0340938D03509358
:104D00008E0380916E00826080936E000C94511B24
:104D100081E01123A1F29091B100987F892B8093BB
:104D2000B100D1CF82E0F5CFC114D10491E0E90602
:104D3000F10494F168E478EE81E090E0A50191013E
:104D40000E94513269017A01A1E0CA1AD108E10832
:104D5000F10893E0113009F0B6CF80918100887F8F
:104D6000892B809381008C859D85AE85BF852FEF33
:104D70003FEFA901892B8A2B8B2B81F09101220F08
:104D8000331FA885B9850E941F3428EE33E040E028
:104D900050E00E94BA32A3CF91E0DCCFD0928900DC
:104DA000C09288002093870330938803409389033F
:104DB00050938A0380916F00826080936F000C94FF
:104DC000511BC092B3002093290430932A044093CE
:104DD0002B0450932C0480917000826080937000AB
:104DE0000C94511B843711F40C94921B863741F0BC
:104DF0008C3611F00C94511B0E94140A0C94511B18
:104E0000CE0101960E945919882311F40C94511B6C
:104E100069817A81072E000C880B990B0E94680A21
:104E20000C94511B730162018AE0F594E794D794C6
:104E3000C7948A95D1F7F1E0CF1AD108E108F108BB
:104E400085E03DCF60917E0470917F042091400405
:104E5000309141046217730769F482E494E09093FF
:104E60007F0480937E048EE794E0909341048093C6
:104E700040040895FB018193BF01F0937F04E09308
:104E80007E048D30B1F782E494E00E94AD1AE5CF44
:104E90001F93CF93DF9300D0CDB7DEB790EE980F7E
:104EA000913610F08D30E9F4182F809154029091D2
:104EB00055028130910549F1D0F0039709F466C09D
:104EC0008091540290915502029759F4812F0E94CB
:104ED000431A1D3031F410925502109254020E9470
:104EE000270F0F900F90DF91CF911F910895812F81
:104EF0008F7D823539F481E090E090935502809364
:104F00005402DECF82E090E0F8CF183551F028F45B
:104F1000113449F183E090E0F0CF113621F11837D8
:104F2000C9F70E94F4091092E2041092E104109271
:104F3000E0041092D4041092D30480E00E94431A3B
:104F40001A8219826AEACE0101960E942A1A81E029
:104F500090E09A83898365E5CE0101960E942A1A22
:104F60000E94530FADCF8FEC91E00E94A40A0E94E3
:104F7000F4091092E2041092E1041092E0041092FD
:104F8000D4041092D3040E948A1A9ACF1D3009F0DB
:104F900097CF109255021092540292CF1F920F9207
:104FA0000FB60F9211242F933F934F935F936F93FC
:104FB0007F938F939F93AF93BF93EF93FF938091D2
:104FC000290490912A04A0912B04B0912C04892BE0
:104FD0008A2B8B2BD1F190912804E0912604F0913B
:104FE00027048081892780838091290490912A0455
:104FF000A0912B04B0912C04181619061A061B0652
:105000009CF48091290490912A04A0912B04B091E2
:105010002C040197A109B1098093290490932A04D3
:10502000A0932B04B0932C04FF91EF91BF91AF910B
:105030009F918F917F916F915F914F913F912F91B0
:105040000F900FBE0F901F90189580913F010E9406
:10505000AB03EACF1F920F920FB60F9211242F933A
:105060003F934F935F936F937F938F939F93AF93F0
:10507000BF93EF93FF938AE396E00E94B502FF91FE
:10508000EF91BF91AF919F918F917F916F915F91C0
:105090004F913F912F910F900FBE0F901F90189539
:1050A0001F920F920FB60F9211242F938F939F93FD
:1050B000EF93FF93E0914A06F0914B068081E091D7
:1050C0005006F091510682FD1BC0908180915306DD
:1050D0008F5F8F7320915406821741F0E091530641
:1050E000F0E0E65CF94F958F80935306FF91EF91C6
:1050F0009F918F912F910F900FBE0F901F90189539
:105100008081F4CF1F920F920FB60F9211242F932C
:105110003F938F939F93AF93BF9380911E04909181
:105120001F04A0912004B091210430911D0423E0BC
:10513000230F2D3758F50196A11DB11D20931D0495
:1051400080931E0490931F04A0932004B093210425
:105150008091220490912304A0912404B09125040D
:105160000196A11DB11D8093220490932304A09366
:105170002404B0932504BF91AF919F918F913F91EB
:105180002F910F900FBE0F901F90189526E8230FB8
:105190000296A11DB11DD2CF1F920F920FB60F9292
:1051A00011242F933F934F935F936F937F938F932C
:1051B0009F93AF93BF93EF93FF93E0914201F091E0
:1051C00043010995FF91EF91BF91AF919F918F910D
:1051D0007F916F915F914F913F912F910F900FBEF3
:1051E0000F901F9018951F920F920FB60F921124D7
:1051F0002F933F934F935F936F937F938F939F93DF
:10520000AF93BF93EF93FF93E0914001F091410181
:105210000995FF91EF91BF91AF919F918F917F91F0
:105220006F915F914F913F912F910F900FBE0F9013
:105230001F9018951F920F920FB60F9211242F9363
:105240003F934F935F936F937F938F939F93AF930E
:10525000BF93EF93FF93E0911B04F0911C04099519
:10526000FF91EF91BF91AF919F918F917F916F913E
:105270005F914F913F912F910F900FBE0F901F9014
:1052800018954F925F926F927F928F929F92AF92FA
:10529000BF92CF92DF92EF92FF920F931F93CF9323
:1052A000DF9300D000D0CDB7DEB72B013C012983BE
:1052B0003A834B835C8367017801A0EB8A2EA4E0DC
:1052C0009A2EA12CB12C411451046104710409F1EE
:1052D00077FE07C066277727CB0164197509860911
:1052E00097090E941B319B01AC01C701B6010E94C6
:1052F000583320E034E244E759E40E947A3120E058
:1053000030E040E05FE30E94EC320E94CA334B0180
:105310005C0129813A814B815C8121153105410570
:10532000510509F410C1CA01B90157FF07C0909592
:105330008095709561957F4F8F4F9F4F0E941B31D5
:105340009B01AC01C701B6010E94583320E034E252
:1053500044E759E40E947A3120E030E040E05FE326
:105360000E94EC320E94CA336B017C0191E030EB69
:10537000831634E09306A104B10408F090E081E0C4
:1053800040EBC41644E0D406E104F10408F080E0E8
:10539000992311F08111DCC151EBC51654E0D506FB
:1053A000E104F10410F09111D6C191EB891694E05B
:1053B0009906A104B10410F08111D0C14114510427
:1053C0006104710431F1D301C20177FE07C088275F
:1053D0009927DC0184199509A609B70980933B0137
:1053E00090933C01A0933D01B0933E0180923E0218
:1053F00090923F02A0924002B092410281E01414C8
:105400001504160417040CF08FEF80934A021092D3
:105410003D0229813A814B815C812115310541058D
:10542000510551F1DA01C90157FF07C0B095A095A8
:10543000909581959F4FAF4FBF4F809337019093C9
:105440003801A0933901B0933A01C0923902D09249
:105450003A02E0923B02F0923C0289819A81AB8150
:10546000BC81181619061A061B060CF073C081E0E1
:1054700080934B02109238020E9408046093340219
:105480007093350280933602909337026093300216
:10549000709331028093320290933302109246024D
:1054A0001092470210924802109249021092420252
:1054B00010924302109244021092450224013501D9
:1054C000460E571E681E791E40922C0250922D02E5
:1054D00060922E0270922F026C0D7D1D8E1D9F1DFD
:1054E000609328027093290280932A0290932B02E2
:1054F00090914A0280914B02992309F4BBC0882302
:1055000009F4B8C08C149D04AE04BF0408F08DC02B
:1055100081149104A104B104D1F1D501C401E3E0E7
:10552000880F991FAA1FBB1FEA95D1F7009721E0AA
:10553000A207B10588F421E020933B0490933A043C
:105540008093390417C0F0EBCF2EF4E0DF2EE12C6E
:10555000F12C0CCF8FEF8CCF009738E0A307B1056B
:10556000B0F582E080933B044FE1B42290923A047C
:10557000809239048091390490913A049093870085
:105580008093860080913B0480618093810088E055
:1055900097E090931C0480931B0481E080936F003C
:1055A00090E080E00F900F900F900F90DF91CF91DF
:1055B0001F910F91FF90EF90DF90CF90BF90AF9031
:1055C0009F908F907F906F905F904F90089500977D
:1055D00050E4A507B10558F423E020933B0446E0CE
:1055E000B695A795979587954A95D1F7A7CF009738
:1055F000A10521E0B20740F424E020933B04892F69
:105600009A2FAB2FBB279ACF0097A10534E0B307A1
:1056100008F066C025E020933B042AE0B695A795E4
:10562000979587952A95D1F789CFC114D104E104C4
:10563000F10409F4ACCFD701C60173E0880F991FBC
:10564000AA1FBB1F7A95D1F7009741E0A407B105C7
:1056500008F471CF009758E0A507B10508F066C0BF
:1056600082E080933B048FE1F822D0923A04C0920A
:10567000390480CF80914A028823C1F181149104BA
:10568000A104B10409F483CFD501C40163E0880FFC
:10569000991FAA1FBB1F6A95D1F7009751E0A50774
:1056A000B10508F448CF009728E0A207B10530F40F
:1056B00082E080933B043FE1B32258CF009740E45F
:1056C000A407B10508F488CF0097A10551E0B507FC
:1056D00008F492CF0097A10524E0B20708F49ACF0E
:1056E00085E080933B048FEF9FEF28CFC114D10456
:1056F000E104F10409F44BCFD701C60153E0880F50
:10570000991FAA1FBB1F5A95D1F7009731E0A30735
:10571000B10508F410CF009748E0A407B10530F4B4
:1057200082E080933B045FE1F5229FCF009720E465
:10573000A207B10508F450CF0097A10531E0B307E7
:1057400008F45ACF0097A10544E0B40748F662CFA9
:1057500083E090E027CF81E090E024CF82E090E0EA
:1057600021CF2F923F924F925F926F927F928F92B2
:105770009F92AF92BF92CF92DF92EF92FF920F93E0
:105780001F93CF93DF9300D000D0CDB7DEB7690170
:105790007A012091310430913204409133045091C8
:1057A00034040E947A3120E030E040E05FE30E9460
:1057B000EC320E94CA332B013C0120912D04309120
:1057C0002E0440912F0450913004C701B6010E946D
:1057D0007A3120E030E040E05FE30E94EC320E944A
:1057E000CA334B015C01411451046104710409F492
:1057F0007DC0C301B20177FE07C066277727CB01C2
:1058000064197509860997090E941B3120E030E070
:1058100046E954E40E947A3120E034E244E759E456
:105820000E9458331B0189839A8381149104A10437
:10583000B10409F456C0C501B401B7FE07C066271C
:105840007727CB01681979098A099B090E941B31C6
:1058500020E030E046E954E40E947A3120E034E26E
:1058600044E759E40E9458336B018C839B83960173
:105870004C815B81B10189819A810E9400341816A4
:10588000F4F5710109811A81A5019401C301B201E6
:105890000E944129610189818C838A818B83B601B1
:1058A0008C819B810E94CA33CB010F900F900F9087
:1058B0000F90DF91CF911F910F91FF90EF90DF90AC
:1058C000CF90BF90AF909F908F907F906F905F90A0
:1058D0004F903F902F900895212C312C19821A82DD
:1058E000AACFC12CD12C1C821B82C1CF8114910460
:1058F000A104B10489F7C12CD12C1C821B82760132
:105900000C811B81A5019401C301B2010E944129B0
:10591000C6CF4F925F926F927F928F929F92AF927B
:10592000BF92CF92DF92EF92FF920F931F932B01C2
:105930003C01CA01B901670120912D0430912E0468
:1059400040912F04509130040E947A3120E030E0E1
:1059500040E05FE30E94EC320E94CA334B015C01DD
:105960002091310430913204409133045091340439
:10597000C301B2010E947A3120E030E040E05FE3F1
:105980000E94EC320E94CA337601A50194010E9464
:1059900041291F910F91FF90EF90DF90CF90BF9022
:1059A000AF909F908F907F906F905F904F900895F1
:1059B00010923D0610923C0688EE93E0A0E0B0E025
:1059C00080933E0690933F06A0934006B093410615
:1059D00082E891E090933B0680933A0685EC90E054
:1059E000909347068093460684EC90E09093490696
:1059F0008093480680EC90E090934B0680934A0693
:105A000081EC90E090934D0680934C0682EC90E000
:105A100090934F0680934E0686EC90E0909351064B
:105A20008093500610925306109254061092550619
:105A3000109256061092EE061092ED061092F006A5
:105A40001092EF061092F2061092F10665E170E0F6
:105A500090E080E00E945F35009751F19093EE0650
:105A60008093ED0624E130E03093F0062093EF06BA
:105A70002091F1063091F206232B11F4FC011082E3
:105A800084E190E09093F2068093F10662ED71E07C
:105A90008091ED069091EE060E9442361DC0109254
:105AA000DC061092DB061092DA061092D90646C088
:105AB0008091ED069091EE06009711F00E94D63489
:105AC0001092EE061092ED061092F2061092F10678
:105AD0001092F0061092EF061092D8061092DF0690
